:100000000C94DE030C9406040C9406040C94060471
:100010000C9406040C9406040C9406040C94060438
:100020000C9406040C9406040C9406040C94F61C20
:100030000C9406040C9406040C9406040C94060418
:100040000C94AC1C0C9406040C947A1C0C94541C58
:100050000C9406040C9406040C9406040C940604F8
:100060000C9406040C94060400000000003E5B4F54
:100070005B3E3E6B4F6B3E1C3E7C3E1C183C7E3C08
:10008000181C577D571C1C5E7F5E1C00183C180016
:10009000FFE7C3E7FF0018241800FFE7DBE7FF30A6
:1000A000483A060E2629792926407F050507407F14
:1000B00005253F5A3CE73C5A7F3E1C1C08081C1C87
:1000C0003E7F14227F22145F5F005F5F06097F017D
:1000D0007F006689956A606060606094A2FFA29468
:1000E00008047E040810207E201008082A1C080836
:1000F0001C2A08081E101010100C1E0C1E0C303884
:100100003E3830060E3E0E06000000000000005F84
:1001100000000007000700147F147F14242A7F2AA0
:100120001223130864623649562050000807030062
:10013000001C2241000041221C002A1C7F1C2A08AE
:10014000083E080800807030000808080808000011
:1001500060600020100804023E5149453E00427F85
:10016000400072494949462141494D331814127FD4
:100170001027454545393C4A494931412111090774
:100180003649494936464949291E000014000000F5
:1001900040340000000814224114141414140041C7
:1001A00022140802015909063E415D594E7C121184
:1001B000127C7F494949363E414141227F414141BC
:1001C0003E7F494949417F090909013E4141517337
:1001D0007F0808087F00417F41002040413F017FA8
:1001E000081422417F404040407F021C027F7F0470
:1001F00008107F3E4141413E7F090909063E4151B9
:10020000215E7F09192946264949493203017F01A8
:10021000033F4040403F1F2040201F3F4038403FA9
:10022000631408146303047804036159494D4300BF
:100230007F4141410204081020004141417F0402F6
:10024000010204404040404000030708002054548D
:1002500078407F284444383844444428384444286B
:100260007F385454541800087E090218A4A49C78BE
:100270007F0804047800447D40002040403D007F1A
:100280001028440000417F40007C047804787C08FA
:100290000404783844444438FC18242418182424CE
:1002A00018FC7C08040408485454542404043F44B3
:1002B000243C4040207C1C2040201C3C4030403CE2
:1002C00044281028444C9090907C4464544C440042
:1002D00008364100000077000000413608000201A6
:1002E0000204023C2623263C1EA1A161123A404092
:1002F000207A38545455592155557941225454780F
:1003000042215554784020545579400C1E527212A7
:100310003955555559395454545939555454580030
:1003200000457C410002457D420001457C407D1234
:1003300011127DF0282528F07C5455450020545496
:100340007C547C0A097F4932494949323A44444441
:100350003A324A4848303A4141217A3A424020787C
:10036000009DA0A07D3D4242423D3D4040403D3C7D
:1003700024FF2424487E4943662B2FFC2F2BFF09A2
:1003800029F620C0887E0903205454794100004496
:100390007D413048484A32384040227A007A0A0A81
:1003A000727D0D19317D2629292F282629292926F4
:1003B00030484D4020380808080808080808382F39
:1003C00010C8ACBA2F102834FA00007B00000814C3
:1003D0002A142222142A14085500550055AA55AA99
:1003E00055AAFF55FF55FF000000FF00101010FF39
:1003F00000141414FF001010FF00FF1010F010F094
:10040000141414FC001414F700FF0000FF00FF1484
:1004100014F404FC141417101F10101F101F1414D0
:10042000141F00101010F0000000001F101010101A
:100430001F10101010F010000000FF10101010100E
:1004400010101010FF10000000FF140000FF00FF4C
:1004500000001F10170000FC04F4141417101714E8
:1004600014F404F40000FF00F7141414141414140A
:10047000F700F7141414171410101F101F1414147D
:10048000F4141010F010F000001F101F0000001FE7
:1004900014000000FC140000F010F01010FF10FF1A
:1004A000141414FF141010101F00000000F010FFAF
:1004B000FFFFFFFFF0F0F0F0F0FFFFFF0000000093
:1004C00000FFFF0F0F0F0F0F3844443844FC4A4A17
:1004D0004A347E02020606027E027E0263554941CC
:1004E000633844443C04407E201E2006027E020203
:1004F00099A5E7A5991C2A492A1C4C7201724C3017
:100500004A4D4D303048784830BC625A463D3E49ED
:100510004949007E0101017E2A2A2A2A2A44445F91
:10052000444440514A444040444A51400000FF0185
:1005300003E080FF000008086B6B08361236243693
:10054000060F090F060000181800000010100030F8
:1005500040FF0101001F01011E00191D1712003C80
:100560003C3C3C00000000007365747570005072E4
:100570006F626CC3A86D65206465206C6F6E6775D3
:10058000657572206D657373616765207479706538
:1005900020350050726F626CC3A86D6520646520C1
:1005A0006C6F6E6775657572206D657373616765D5
:1005B000207479706520340050726F626CC3A86D2E
:1005C00065206465206C6F6E6775657572206D655A
:1005D0007373616765207479706520310050726FA4
:1005E000626CC3A86D65206465206C6F6E6775656D
:1005F0007572206D6573736167652074797065200D
:1006000030006D656D6F4D6F6465733A20007267E1
:10061000625F6C65642E5365744272696768746EBC
:1006200065737320003A003A003A003A0074766D20
:10063000633A006465633A00576900653A005061A7
:1006400073206465206D65732E0072656C6169733B
:100650003A20004465636F6D7074652000000000EF
:100660000023002600290020002020202000200058
:10067000202000200043414E2042555320536869FA
:10068000656C6420696E697420746F203130306B42
:10069000206F6B210043414E20425553205368691F
:1006A000656C6420696E6974206661696C20313004
:1006B00020747279004572726F722053656E64699E
:1006C0006E67204D6573736167652E2E2E0004E002
:1006D00010021C07123732292D29252B390001035E
:1006E00010E110031D07062E2C292D2E2E373F005A
:1006F00000021013800A298064022A040000007F8F
:100700002B040000009F0F0180961180FFB10301B0
:100710002C2DB203012C2DB306012C2D012C2DB450
:100720000107C003A20284C101C5C2020A00C302BC
:100730008A2AC4028AEEC5010E20003601C83A0199
:1007400005506F7200476172004820736462004870
:1007500020637569005420657874005420736462C6
:1007600000542063756900000000080002010000C9
:100770000304070000000000000000000000002447
:100780000027002A00010204081020408001020412
:100790000810200102040810200000000025002895
:1007A000002B0004040404040404040202020202F4
:1007B00002030303030303004B1DC72811241FBEBC
:1007C000CFEFD8E0DEBFCDBF13E0A0E0B1E0EEEAAE
:1007D000F9E502C005900D92A03EB107D9F725E0DA
:1007E000A0EEB3E001C01D92A936B207E1F713E015
:1007F000CDEDD3E004C02197FE010E949F2BCC3D9C
:10080000D107C9F70E94F61E0C94CA2C0C94000064
:10081000CF93DF9300D01F92CDB7DEB749835A83C1
:100820006B832091AF04222379F04981249FA0019A
:10083000112459834A81249FA00111245A833B81AA
:10084000239F900111243B832091A0043091A104A7
:1008500082179307B0F43A812B81FC01EE0FFF1F42
:100860008E0F9F1FE091A904F091AA04E80FF91FD1
:1008700089818083318322838091A2048068809360
:10088000A2040F900F900F90DF91CF910895CF9316
:10089000C1E0C80F2091AF04C217C1F1215061F12E
:1008A0008F3FF9F430E050E040E06FEF7FEF80E001
:1008B00090E00E94622BE091A904F091AA0480913B
:1008C000A7049091A8048E0F9F1F8E179F07B9F061
:1008D0006081629FA001639F500D11245083319667
:1008E000F4CF8C2F90E0982F88270197622F70E02B
:1008F0000E94182B9B01DFCF30E020E0DCCFC093BB
:10090000AF048091A20480688093A204CF910895DF
:100910008091B8049091B9048230910538F0880F25
:10092000991F880F991F05970197F1F7089530E0F7
:100930008111362F50E0440F551F435A594F90E014
:1009400080E0FA01A591B4912C912623231307C0CE
:10095000019681382EE39207A1F790E080E0089598
:100960000895EF92FF920F931F93CF93DF938C0123
:100970007B01D0E0C0E0F701EC0FFD1F649166231E
:1009800061F0D801ED91FC910190F081E02DC8015A
:100990000995892B11F02196EECFCE01DF91CF91F1
:1009A0001F910F91FF90EF900895AF92BF92CF9259
:1009B000DF92EF92FF920F931F93CF93DF936C011F
:1009C0007B018B01040F151FEB015E01AE18BF0800
:1009D000C017D10759F06991D601ED91FC910190B2
:1009E000F081E02DC6010995892B79F7C501DF91CA
:1009F000CF911F910F91FF90EF90DF90CF90BF901C
:100A0000AF900895FC01538D448D252F30E0842F45
:100A100090E0821B930B541710F0CF960895019726
:100A20000895FC01918D828D981761F0A28DAE0F13
:100A3000BF2FB11D5D968C91928D9F5F9F73928F9A
:100A400090E008958FEF9FEF0895FC01918D828DC6
:100A5000981731F0828DE80FF11D858D90E0089593
:100A60008FEF9FEF0895FC01918D228D892F90E0EB
:100A7000805C9F4F821B91098F739927089581EFA6
:100A800093E00E94330521E0892B09F420E0822FB6
:100A9000089580E090E0892B29F00E943F058111A4
:100AA0000C9400000895FC01A48DA80FB92FB11D6E
:100AB000A35ABF4F2C91848D90E001968F73992794
:100AC000848FA689B7892C93A089B1898C91837072
:100AD00080648C93938D848D981306C00288F3896B
:100AE000E02D80818F7D80830895EF92FF920F9398
:100AF0001F93CF93DF93EC0181E0888F9B8D8C8DCA
:100B000098131AC0E889F989808185FF15C09FB7BD
:100B1000F894EE89FF896083E889F9898081837080
:100B2000806480839FBF81E090E0DF91CF911F912F
:100B30000F91FF90EF900895F62E0B8D10E00F5F50
:100B40001F4F0F731127E02E8C8D8E110CC00FB626
:100B500007FCFACFE889F989808185FFF5CFCE01BE
:100B60000E945305F1CFEB8DEC0FFD2FF11DE35AE1
:100B7000FF4FF0829FB7F8940B8FEA89FB89808141
:100B80008062CFCFCF93DF93EC01888D8823B9F0BB
:100B9000AA89BB89E889F9898C9185FD03C0808188
:100BA00086FD0DC00FB607FCF7CF8C9185FFF2CF05
:100BB000808185FFEDCFCE010E945305E9CFDF9103
:100BC000CF910895833081F028F4813099F08230FC
:100BD000A9F008958730A9F08830C9F08430B1F4C5
:100BE000809180008F7D03C0809180008F778093FB
:100BF0008000089584B58F7784BD089584B58F7D76
:100C0000FBCF8091B0008F778093B00008958091E2
:100C1000B0008F7DF9CFCF93DF93282F30E0F9011B
:100C2000E959F84F8491F901EB57F84FD491F90144
:100C3000ED55F84FC491CC23A1F081110E94E2053B
:100C4000EC2FF0E0EE0FFF1FE35AF94FA591B4919E
:100C5000EC91ED2381E090E009F480E0DF91CF9109
:100C6000089580E090E0FACF1F93CF93DF93282F71
:100C700030E0F901E959F84F8491F901EB57F84F49
:100C8000D491F901ED55F84FC491CC23A9F0162F5A
:100C900081110E94E205EC2FF0E0EE0FFF1FE756F6
:100CA000F84FA591B4918FB7F894EC91111108C049
:100CB000D095DE23DC938FBFDF91CF911F910895F4
:100CC000DE2BF8CFECE6F7E0E491E33039F160F4A5
:100CD000E130D1F0E230E9F060E0803891050CF0CD
:100CE00061E085E00C943406E73011F1E83041F121
:100CF000E43091F72091800020622093800090934F
:100D00008B0080938A00089594B5906894BD87BD48
:100D1000089594B5906294BD88BD08952091800097
:100D20002068209380009093890080938800089524
:100D30009091B00090689093B0008093B3000895B4
:100D40009091B00090629093B0008093B4000895A9
:100D5000CF93DF9390E0FC01EB57F84F24918D5532
:100D6000984FFC0184918823C9F090E0880F991F67
:100D7000FC01E558F84FA591B491FC01E756F84FF6
:100D8000C591D49161110DC09FB7F8948C912095B5
:100D900082238C938881282328839FBFDF91CF9162
:100DA0000895623051F49FB7F8943C91822F80955A
:100DB00083238C93E8812E2BEFCF8FB7F894EC919F
:100DC0002E2B2C938FBFEACFCF93DF93C5EBD4E0CC
:100DD00061E089810E94A8060E94880460E0888101
:100DE0000E94A8060E94880460E089810E94A806EB
:100DF000DF91CF910C9488040F931F93CF93DF93CF
:100E0000D82FC8E061E08091B5040E94A8060E9436
:100E100088040D2F10E060E0D0FF61E08091B604FF
:100E20000E94A8060E94880460E08091B5040E9498
:100E3000A8060E94880415950795D02FC15011F778
:100E400061E08091B5040E94A80660E08091B6043C
:100E50000E94A8060E94880460E08091B5040E9468
:100E6000A8060E9488048091B6040E940B06C82F31
:100E7000811105C061E08091B6040E94A8060E941D
:100E8000880461E08091B5040E94A8060E9488044D
:100E900081E0C11101C080E0DF91CF911F910F91DE
:100EA000089561E08091B6040E94A8060C9488041D
:100EB000BF92CF92DF92EF92FF920F931F93CF9347
:100EC000DF9300D000D0CDB7DEB77B0140E087FFD5
:100ED00002C0819541E08E010B5F1F4F9E012F5F85
:100EE0003F4F6901282F880F330B80E4B82EC701CC
:100EF000B9010E94182BF801DC01A454BE4F9C914B
:100F00009293811106C0EF2821F4442311F0B0829E
:100F100040E07B01EC15FD0509F03FC00D5F1F4F60
:100F200020E44191DF011197322F3078342B3C932C
:100F3000220F0E171F07A9F70E94510780E40E9495
:100F4000FC060E94E4060E94510780EC0E94FC0609
:100F500089810E94FC068A810E94FC068B810E9486
:100F6000FC068C810E94FC060E94E4060E94510748
:100F70008091B7048F7080580E94FC060F900F90EC
:100F80000F900F90DF91CF911F910F91FF90EF90F5
:100F9000DF90CF90BF900C94E4068F01A8CF3FB7AD
:100FA000F8948091E6039091E703A091E803B09153
:100FB000E90326B5A89B05C02F3F19F00196A11D96
:100FC000B11D3FBFBA2FA92F982F8827BC01CD0193
:100FD000620F711D811D911D42E0660F771F881FF2
:100FE000991F4A95D1F708950F931F93CF93DF93DD
:100FF00000D000D000D01F92CDB7DEB78091A20400
:1010000087FF66C00E94CF070091A3041091A4043B
:101010002091A5043091A604601B710B820B930BE9
:101020006C3271408105910568F3F8948091AE04AB
:10103000E091AC04F091AD044091A7045091A80454
:101040002091A9043091AA045A83498389010F5F32
:101050001F4FD9019C919F839081982B9E839081F3
:10106000809589238D838D818C8388E08B835E813D
:101070006D814F813B812C8189819A81D801508378
:1010800047FD252F3A952083262F39F0441F00C0B5
:1010900000006083000000C0F2CF38E04D91608313
:1010A0000000019761F74F833B832C839A838983E8
:1010B00078940E94CF076093A3047093A404809354
:1010C000A5049093A6048091A2048F778093A20434
:1010D00027960FB6F894DEBF0FBECDBFDF91CF913C
:1010E0001F910F910895282FCB0140919A045091A0
:1010F0009B0460919C042230B1F040918E04509189
:101100008F0460919004233071F0409197045091C6
:10111000980460919904213031F4409194045091E5
:101120009504609196040E9408040C94F4078F9231
:101130009F92AF92BF92CF92DF92EF92FF926B019C
:101140007C010E94CF074B015C01C114D104E10472
:10115000F104B9F00E94CF07681979098A099B093F
:10116000683E73408105910580F321E0C21AD108E1
:10117000E108F10888EE880E83E0981EA11CB11CDE
:10118000E4CFFF90EF90DF90CF90BF90AF909F9013
:101190008F9008952FB7F8946091E2037091E30364
:1011A0008091E4039091E5032FBF08950E94CA083F
:1011B0006C507E4F8F4F9F4F6093ED037093EE0303
:1011C0008093EF039093F0038091EC03811122C090
:1011D000E6E9F7E024912093EC0384EB97E0FC012F
:1011E0003491E32FF0E0EE0FFF1FE756F84F4591E3
:1011F00054915093EB034093EA03FC018491E82F50
:10120000F0E0EE0FFF1FE558F84FA591B491EC9177
:10121000E22BEC9381E896E0909387008093860020
:1012200020918400309185002238364020F0909340
:1012300085008093840081E18093810080E1809328
:10124000800080916F00826080936F0008950C94FD
:10125000D6088EBD00000DB407FEFDCF8EB50895F3
:10126000CF93CFB7F8948091E003811127C0EDEAC6
:10127000F7E08491EFE8F7E09491E82FF0E0EE0FCB
:10128000FF1FE558F84FA591B491EC91E92321F4A3
:1012900061E08AE00E94340661E08AE00E94A806CC
:1012A0008CB580618CBD8CB580648CBD61E08DE0B7
:1012B0000E94A80661E08BE00E94A8068091E003EE
:1012C0008F5F8093E003CFBFCF910895CF93DF93DB
:1012D000EC01411551056105710521F440E054E22E
:1012E00064EF70E04C8F5D8F6E8F7F8F81E28DABEE
:1012F00080E28EAB88A187FD07C061E00E94A8064E
:1013000061E088A10E94340661E089A10E94A806DC
:1013100060E089A10E9434068BA187FD18C061E0BE
:101320008CA10E94A80660E08CA10E94340661E0B6
:101330008BA10E94A80661E08BA10E9434068DA1BA
:1013400087FD03C060E00E94A8068BA187FD0E9474
:1013500030098AA187FD23C061E00E94A80661E0F0
:101360008AA10E94340664E670E080E090E00E946A
:10137000970860E08AA10E94340664E670E080E08D
:1013800090E00E94970861E08AA10E94340668EC10
:1013900070E080E090E0DF91CF910C949708DF91AE
:1013A000CF9108958F929F92AF92BF92CF92DF928A
:1013B000EF92FF920F931F93CF93DF93EC016B019A
:1013C0005A014901E881F9810284F385E02D0995EC
:1013D000E881F9810684F785E02D9401A501B60125
:1013E000CE010995E881F9810688F789E02DCE01C3
:1013F000DF91CF911F910F91FF90EF90DF90CF90F1
:10140000BF90AF909F908F900994AF92BF92CF9270
:10141000DF92EF92FF920F931F93CF93DF93EC0134
:101420007B016A015901E881F9810284F385E02D8D
:101430000995E881F9810288F389E02D9501A601DB
:10144000B701CE010995E881F9810688F789E02D79
:10145000CE01DF91CF911F910F91FF90EF90DF9020
:10146000CF90BF90AF900994AF92BF92CF92DF928E
:10147000EF92FF920F931F93CF93DF93EC017B01C9
:101480006A015901E881F9810284F385E02D09950B
:10149000E881F9810088F189E02D9501A601B70165
:1014A000CE010995E881F9810688F789E02DCE0102
:1014B000DF91CF911F910F91FF90EF90DF90CF9030
:1014C000BF90AF900994EF92FF920F931F93DC01AE
:1014D000ED91FC910684F785E02D780101E010E0A4
:1014E00009951F910F91FF90EF900895EF92FF9251
:1014F0000F931F93DC01ED91FC910684F785E02D9D
:101500007801890121E030E009951F910F91FF904A
:10151000EF900895FC0183A128E030E090E887FF78
:1015200005C06EBD0DB407FEFDCF0895A6A1B7A1FD
:10153000862F8923B1F040A98C91842B8C9382A9AA
:10154000A2A5B3A54C91809584238C9342A9A2A512
:10155000B3A58C91842B8C9396952150310931F74A
:10156000089580A94C9180958423E8CF8F929F9213
:10157000AF92BF92CF92DF92EF92FF920F931F93A1
:10158000CF93DF93EC016901580147012885398524
:10159000621773070CF069C08A859B854817590745
:1015A0000CF063C07B01EC0CFD1CD7011197B7FD5B
:1015B0005CC08A010A0D1B1DF8013197F7FD55C06B
:1015C00077FF03C0670170E060E057FF03C0580178
:1015D00050E040E0A217B3071CF06901C61AD70A11
:1015E000E817F9071CF05C01A41AB50AE881F98133
:1015F00002A4F3A5E02D85019601CE01099596017F
:10160000D5010E94812B6B017C01C114D104E1043E
:10161000F10459F18BA187FF14C081E0C81AD108E9
:10162000E108F1088FEFC816D806E806F806E9F0D9
:101630009EBC0DB407FEFDCF8EBC0DB407FEFDCFE2
:10164000ECCF81E0C81AD108E108F1088FEFC81685
:10165000D806E806F80649F0692DCE010E948A0AEC
:10166000682DCE010E948A0AECCFDF91CF911F91A5
:101670000F91FF90EF90DF90CF90BF90AF909F9031
:101680008F900895CF93DF93EC018CA9ECA5FDA575
:101690009081809589238083CE010E948A0A9CA92B
:1016A000ECA5FDA58081892B8083DF91CF910895E2
:1016B0001F93CF93DF93EC0163706D8B2BAD30E004
:1016C0008CAD90E0623041F1633061F16130F1F056
:1016D00038AF2FAB9AAF89AF10ECE881F981028463
:1016E000F385E02DCE01099566E3CE010E94420B01
:1016F000612FCE010E948A0AE881F9810688F78964
:10170000E02DCE01DF91CF911F9109943AAF29AF1F
:1017100098AF8FAB10EAE1CF38AF2FAB9AAF89AF5C
:1017200010E0DBCF3AAF29AF98AF8FAB10E6D5CF43
:101730004F925F926F927F928F929F92AF92BF92E1
:10174000CF92DF92EF92FF920F931F93CF93DF938D
:1017500000D000D000D0CDB7DEB79E838D83FC01D2
:1017600087A990AD680F791F81AD92AD480F591FC1
:1017700021503109260F371F6901F12CE12CCB01D3
:10178000B0E0A0E0DC0199278827C82AD92AEA2AF4
:10179000FB2A01501109040F151F2801712C612C1F
:1017A00070E060E0BA0155274427442A552A662A8A
:1017B000772A6AE2CF010E94420B6F2D7727882794
:1017C000992797014427552729833A834B835C83C4
:1017D0008D2C9E2CAF2CBB24ED81FE8123A127FFF5
:1017E00051C06EBD0DB407FEFDCFF981FEBD0DB435
:1017F00007FEFDCF8EBC0DB407FEFDCFCEBC0DB4F1
:1018000007FEFDCF6BE28D819E810E94420B672D0A
:101810007727882799274301AA24BB24FF24E72C94
:10182000D62CC52CED81FE8123A127FF3FC06EBDC4
:101830000DB407FEFDCF8EBC0DB407FEFDCFCEBCB0
:101840000DB407FEFDCF4EBC0DB407FEFDCF6CE21C
:101850008D819E8126960FB6F894DEBF0FBECDBF58
:10186000DF91CF911F910F91FF90EF90DF90CF907C
:10187000BF90AF909F908F907F906F905F904F90B0
:101880000C94420B8D819E810E948A0A69818D8110
:101890009E810E948A0A682D8D819E810E948A0AFB
:1018A0006C2D8D819E810E948A0AACCF8D819E8194
:1018B0000E948A0A682D8D819E810E948A0A6C2D61
:1018C0008D819E810E948A0A642D8D819E810E9455
:1018D0008A0ABDCF1F93CF93DF93EC0163706D8BAA
:1018E0008DAD982F9B7F913029F493E0623008F002
:1018F00091E09CAF6230C9F1633009F44FC09BADF9
:101900004CAD6130C9F0823069F0843009F05FC0BD
:1019100020EA30E03B872A8720E530E039872887B6
:1019200010EC60C010EC20EA30E03B872A8720E80A
:1019300030E03987288756C0823069F0843009F05A
:1019400071C020EA30E03987288720E530E03B8706
:101950002A8710EA72C010EA20EA30E03987288727
:1019600020E830E03B872A8768C0823069F0843005
:1019700009F06BC080EA90E09B878A8780E590E061
:101980009987888710E06CC010E080EA90E09B8720
:101990008A8780E890E09987888762C0823069F002
:1019A000843009F066C080EA90E09987888780E5F6
:1019B00090E09B878A8710E667C010E680EA90E097
:1019C0009987888780E890E09B878A875DC018ECBC
:1019D000813009F0A8CF20E830E03B872A8739879B
:1019E000288718EC892F90E098AF8FAB50E05AAF62
:1019F00049AFE881F9810284F385E02DCE01099594
:101A000066E3CE010E94420B612FCE010E948A0A3A
:101A1000E881F9810688F789E02DCE01DF91CF9129
:101A20001F91099418EA813009F096CF20E830E040
:101A3000398728873B872A8718EA892F90E09AAF51
:101A400089AF50E058AF4FABD4CF18E0813009F0E8
:101A50009CCF80E890E09B878A879987888718E0E9
:101A60008BAD90E098AF8FAB8CAD90E09AAF89AF23
:101A7000C0CF18E6813009F0A1CF80E890E09987C7
:101A800088879B878A8718E68BAD90E09AAF89AFED
:101A90008CAD90E098AF8FABACCF1F93CF93DF931B
:101AA000EC01162FE881F9810284F385E02D099578
:101AB000112371F06DA9CE010E94420BE881F981DA
:101AC0000688F789E02DCE01DF91CF911F9109940F
:101AD0006EA9F1CF1F93CF93DF93162FFC0133A193
:101AE00037FF0CC07EBD0DB407FEFDCF1EBD0DB48B
:101AF00007FEFDCFDF91CF911F910895672FEC0175
:101B00000E948A0A612FCE01DF91CF911F910C9420
:101B10008A0AAF92BF92CF92DF92EF92FF920F9319
:101B20001F93CF93DF93EC0177FD38C088859985AB
:101B3000681779079CF557FD31C08A859B85481742
:101B4000590764F569017A015B01E881F981028432
:101B5000F385E02DCE010995E881F98102A4F3A572
:101B6000E02D01E010E021E030E0A701B501CE0159
:101B70000995B601CE010E946A0DE881F9810688B7
:101B8000F789E02DCE01DF91CF911F910F91FF904A
:101B9000EF90DF90CF90BF90AF900994DF91CF91FD
:101BA0001F910F91FF90EF90DF90CF90BF90AF907B
:101BB0000895EF92FF920F931F93CF93DF93EC0161
:101BC00077FD22C08885998568177907ECF457FD61
:101BD0001BC08A859B8548175907B4F47901E881B1
:101BE000F98102A4F3A5E02D01E010E021E030E04E
:101BF000CE010995B701CE01DF91CF911F910F91D1
:101C0000FF90EF900C946A0DDF91CF911F910F918F
:101C1000FF90EF9008950895FC0193A906A4F7A5FD
:101C2000E02D8081892B808308958CBD9DBD089512
:101C30000895FC016370658B8481958126813781CD
:101C4000613039F0633029F09187808733872287AC
:101C50000895318720879387828708952F923F9236
:101C60004F925F926F927F928F929F92AF92BF92AC
:101C7000CF92DF92EF92FF920F931F93CF93DF9358
:101C8000CDB7DEB769970FB6F894DEBF0FBECDBFF4
:101C9000998F888F5B011A01D22E1F830E83370123
:101CA000C982DC0158962D913C9159972115310537
:101CB00009F004C118968D919C91199768177907BE
:101CC0000CF0C0C11A968D919C911B97481759072B
:101CD0000CF0B8C18C2C912CFB0126E0C29EE00DCB
:101CE000F11D1124F987E8871E161F060CF0AAC102
:101CF000A40193E0440F551F9A95E1F75D874C8747
:101D0000CA01820D931D181619060CF09BC1579637
:101D10008C91811104C05FEA5D1508F4D394A88DFD
:101D2000B98DED91FC9111970284F385E02DCD01E1
:101D30000995F5013596F98BE88BBB82AA822501BE
:101D400088E690E08A199B099C0145E0D49E200D0D
:101D5000311D11243B8B2A8BEA89FB89E40DF51D8B
:101D600024913D822C82D12CC12C622F70E07F8780
:101D70006E87E88DF98DA081B18120FF7CC0F9814B
:101D8000F13009F069C01C96ED91FC912E813F81E4
:101D9000A1014C0D5D1DB201888D998D0995EE85CF
:101DA000FF85F595E7952E2F4FEFC41AD40A6C8165
:101DB0007D81680D791D7D836C8378E0C716D10421
:101DC000A1F68FEF481A580AAA81BB81A80DB91D48
:101DD000BB83AA83E889F989E415F50509F0BCCF2E
:101DE0002E813F8126153705A9F0A88DB98DED917B
:101DF000FC91B981B13009F051C0B5016B5F7F4FE3
:101E00000088F189E02D830128E030E0A101888D70
:101E1000998D0995A88DB98DED91FC911197068842
:101E2000F789E02DCD0169960FB6F894DEBF0FBE9D
:101E3000CDBFDF91CF911F910F91FF90EF90DF9079
:101E4000CF90BF90AF909F908F907F906F905F905A
:101E50004F903F902F9009941E96ED91FC91EE804B
:101E6000FF80840194014C815D816A817B81888D32
:101E7000998D099594CF2E813F812615370509F458
:101E80008ECF3981313029F41C96ED91FC9193016C
:101E90007FCF1E96ED91FC917301E3CF6885798524
:101EA000681979090684F785E02D73010C851D8575
:101EB0009401A101888D998D0995ACCFF9013496D3
:101EC0009491329745915491D91AB7E0DB9E400D19
:101ED000511D1124F90125913491398B288BFA0178
:101EE00045905490FA01329664903196C49032969F
:101EF0001491319604913981323008F48AC0E12E70
:101F0000012E000CFF08402F002E000C550B5987A6
:101F10004887A88DB98DED91FC9111970284F385C6
:101F2000E02DCD010995B9818B2E912CE89CC00143
:101F3000E99C900DF89C900D1124FC01EA0DFB1D0D
:101F4000FF87EE871C82D12C712C9B868A8691019B
:101F5000200F311D07FD3A953D8B2C8BA501410FBC
:101F6000511D17FD5A955F8B4E8B7C1408F052CF94
:101F7000872D90E048855985480F591F6A857B85D4
:101F8000469F9001479F300D569F300D1124D90177
:101F9000A20DB31DBD87AC87EE85FF85FB83EA8369
:101FA000B12CA12C2C893D89280F391F3B8B2A8B02
:101FB0008C818A0DA61408F040C0877041F4C201DC
:101FC0000196E889F989E40DF51DD4902C01D7FE1E
:101FD00015C0A88DB98DED91FC91B981B130F1F4A6
:101FE0000484F585E02D2E813F814A895B896E89C5
:101FF0007F896A0D7B1D888D998D0995DD0CEFEF2A
:10200000AE1ABE0A2A813B81280D391D3B832A83E3
:10201000CFCF19861886F12CE12C7BCF0684F7856B
:10202000E02DEE80FF80840194014C855D856A81FE
:102030007B81888D998D0995E1CF3C81360D3C835C
:10204000739493CF69960FB6F894DEBF0FBECDBFE1
:10205000DF91CF911F910F91FF90EF90DF90CF9084
:10206000BF90AF909F908F907F906F905F904F90B8
:102070003F902F900895AF92BF92CF92EF92FF9230
:102080000F931F93CF93DF93EC01262F888D998DAB
:10209000009709F04FC06A30C9F41D861C868C89F0
:1020A00098E0899F900111248E859F85820F931F50
:1020B0009F878E8781E090E0DF91CF911F910F91F4
:1020C000FF90EF90CF90BF90AF9008956D3091F357
:1020D000CC888E898823C1F08C859D85E6E0CE9ED4
:1020E000800D911D1124488559854817590764F4BE
:1020F0004E855F851D861C86F8E0CF9EC0011124A9
:10210000840F951F9F878E87EA88FB880889198925
:102110004E855F856C857D85CE010E942E0E2C89B3
:102120008C859D8536E0239F800D911D11249D8710
:102130008C87C0CF6A3069F41D861C86FC013696F8
:10214000E4912C898E859F85E29F800D911D11243D
:10215000AFCF6D3009F4AECFFC01349634916317E4
:1021600008F4A8CF3196E491E61708F4A3CFFC0158
:10217000329645915491E62FE31BFF0B37E03E9FCB
:1021800050013F9FB00C1124A40EB51EF5013296EC
:1021900034913196E4913323A1F1EE2391F1CC886F
:1021A000F5013596E4914E89442301F10E2E000C81
:1021B000FF0BE30FF11DCE9EA001CF9E500D112409
:1021C0006C857D85460F571F68857985641775076F
:1021D0006CF44E855F851D861C860696FC018491F5
:1021E000C89E400D511D11245F874E87EA88FB88E9
:1021F000088919894E855F856C857D85CE010E9491
:102200002E0EF5013496E4912C898C859D85E29FF4
:10221000800D911D11248BCF6F927F928F929F9290
:10222000AF92BF92CF92DF92EF92FF920F931F93E4
:10223000CF93DF93EC016B015A0139014801E8812A
:10224000F9810284F385E02D0995E881F9810288FE
:10225000F389E02D87019301A501B601CE0109950F
:10226000A501480D591D41505109E881F9810288A5
:10227000F389E02D9301B601CE010995E881F9813A
:102280000088F189E02D9401A501B601CE010995E0
:10229000C60CD71CB60161507109E881F98100882C
:1022A000F189E02D9401A501CE010995E881F9811C
:1022B0000688F789E02DCE01DF91CF911F910F9114
:1022C000FF90EF90DF90CF90BF90AF909F908F9056
:1022D0007F906F9009946F927F928F929F92AF92AE
:1022E000BF92CF92DF92EF92FF920F931F93CF9303
:1022F000DF935C01EB016A01490138018701DC01D0
:10230000ED91FC916217730719F5641675062CF0B0
:10231000962D872D3A01C92ED82E960126193709F8
:102320002F5F3F4F048CF58DE02DA301BE01C50149
:102330000995DF91CF911F910F91FF90EF90DF9062
:10234000CF90BF90AF909F908F907F906F900895A7
:102350004615570591F42617370724F0892D4B01B0
:10236000C22FD82F9E01281939092F5F3F4F068CA5
:10237000F78DE02DA601B401DACF0284F385E02DBC
:102380000995D501ED91FC910488F589E02D830133
:102390009401A601BE01C5010995D501ED91FC91FD
:1023A0000688F789E02DC501DF91CF911F910F912C
:1023B000FF90EF90DF90CF90BF90AF909F908F9065
:1023C0007F906F900994EF92FF920F931F93DC011F
:1023D0001A960D911C911B9718962D913C91199767
:1023E000ED91FC9100A0F1A1E02D7B0150E040E0D7
:1023F00070E060E009951F910F91FF90EF900895B4
:102400004F925F926F927F928F929F92AF92BF9204
:10241000CF92DF92EF92FF920F931F93CF93DF93B0
:102420006C012B015A0139014801DC01ED91FC914D
:102430000284F385E02D0995E201640C751CD60138
:10244000ED91FC91C615D7055CF40088F189E02D6B
:1024500087019401A501BE01C60109952196EFCF20
:102460000688F789E02DC601DF91CF911F910F916A
:10247000FF90EF90DF90CF90BF90AF909F908F90A4
:102480007F906F905F904F9009948F929F92AF9240
:10249000BF92CF92DF92EF92FF920F931F93CF9351
:1024A000DF93EC015B014A016901E881F981028453
:1024B000F385E02D099595012C0D3D1D2150310925
:1024C000E881F9810488F589E02D78018401A4016F
:1024D000B501CE010995E881F9810688F789E02DDB
:1024E000CE01DF91CF911F910F91FF90EF90DF9080
:1024F000CF90BF90AF909F908F9009948F929F92B2
:10250000AF92BF92CF92DF92EF92FF920F931F9301
:10251000CF93DF93EC015B014A0169017801E88107
:10252000F9810284F385E02D0995C80CD91C860138
:1025300001501109E881F9810488F589E02D9501A0
:10254000A401B501CE010995E881F9810688F789D2
:10255000E02DCE01DF91CF911F910F91FF90EF9071
:10256000DF90CF90BF90AF909F908F900994EF92A3
:10257000FF920F931F93DC01ED91FC9100A0F1A15C
:10258000E02D09951F910F91FF90EF9008950F9303
:102590001F93DC01ED91FC91068CF78DE02D0995E0
:1025A0001F910F9108950F931F93DC01ED91FC9102
:1025B000048CF58DE02D09951F910F910895DC0194
:1025C000ED91FC910084F185E02D09942F923F92CA
:1025D0004F925F926F927F928F929F92AF92BF9233
:1025E000CF92DF92EF92FF920F931F93CF93DF93DF
:1025F00000D000D000D0CDB7DEB73C016A013E83E9
:102600002D83FC82EB825801A41AB50AB7FE03C0E1
:10261000B194A194B1088D809E80861A970A97FE86
:1026200003C09194819491088A149B045CF0902FCC
:10263000812F0D811E819D838E839C2D8D2D6B019D
:10264000692F782F0C151D055CF09D818E817E838E
:102650006D83692F782F902F812F8601C92ED82E58
:102660001601201A310A2B012D813E81421A530A8C
:1026700057FE03C0519441945108710137FE03C0C5
:102680003FEFE31AF30AF594E7948D819E81861754
:1026900097075CF5A1E0B0E0BA83A983C016D10624
:1026A0004CF1D301ED91FC910484F585E02D2B8153
:1026B0003C81A8016D817E818A149B041CF04D81B0
:1026C0005E81B801C3010995E418F508F7FE0AC058
:1026D0002D813E8189819A81280F391F3E832D8368
:1026E000E20CF31C0F5F1F4FD9CF2FEF3FEF3A8360
:1026F0002983D4CF26960FB6F894DEBF0FBECDBF88
:10270000DF91CF911F910F91FF90EF90DF90CF90CD
:10271000BF90AF909F908F907F906F905F904F9001
:102720003F902F900895FFCF089590E080E00895A6
:102730000F931F93FC0100E012E12AE730E090E0E4
:10274000401751076207730740F436952795179590
:1027500007959F5F9630A1F797E0292F206A26956D
:1027600020839095917091831F910F910895EF921E
:10277000FF920F931F93CF93DF9300D0CDB7DEB7B7
:10278000E82EF62E0EE015E0F801408151816281BD
:102790007381CE0101960E94981389819A810E94CB
:1027A000150E60E0F80184890E94340682E00E94E0
:1027B00029098E2D0E9429098F2D0E94290961E087
:1027C000F80184890E9434060F900F90DF91CF9119
:1027D0001F910F91FF90EF900895DF92EF92FF927B
:1027E0000F931F93CF93DF9300D0CDB7DEB7182F91
:1027F000D62EF72EE42E40910E0550910F056091D4
:10280000100570911105CE0101960E9498138981DF
:102810009A810E94150E60E0809122050E94340684
:1028200083E00E942909812F0E9429090D2D1F2D67
:10283000E00EF12EF11C0E151F0539F080E00E940C
:102840002909F80181938F01F6CF61E0809122057B
:102850000E9434060F900F90DF91CF911F910F913E
:10286000FF90EF90DF900895FF920F931F93CF9307
:10287000DF9300D0CDB7DEB70EE015E0F801408160
:10288000518162817381CE0101960E9498138981E2
:102890009A810E94150E60E0F80184890E94340636
:1028A00080EA0E94290980E00E942909F82E61E04F
:1028B000F80184890E9434068F2D0F900F90DF91CC
:1028C000CF911F910F91FF900895DF92EF92FF92A9
:1028D0000F931F93CF93DF9300D0CDB7DEB78C015A
:1028E000D62EE42EF22EFC0140815181628173814B
:1028F000CE0101960E94981389819A810E94150E3B
:1029000060E0F80184890E94340685E00E9429096C
:102910008D2D0E9429098E2D0E9429098F2D0E943C
:10292000290961E0F80184890E9434060F900F9014
:10293000DF91CF911F910F91FF90EF90DF9008955D
:10294000BF92CF92DF92EF92FF920F931F93CF939C
:10295000DF9300D0CDB7DEB77C01162FB42ED52E75
:10296000C22EFC014081518162817381CE010196AA
:102970000E94981389819A810E94150E60E0F701E8
:1029800084890E94340682E00E942909812F0E94D6
:1029900029090B2D1D2DC00ED12ED11C0C151D0586
:1029A00031F0F80181918F010E942909F7CF61E090
:1029B000F70184890E9434060F900F90DF91CF9128
:1029C0001F910F91FF90EF90DF90CF90BF900895EF
:1029D000CF92DF92EF92FF920F931F93CF93DF93EB
:1029E00000D000D0CDB7DEB7FC01812F9927690157
:1029F000EE24FF240C838B83413021F59C2D990F0D
:102A0000990F990F907E8C2D83708860982B9A83F4
:102A100095E0D694C7949A95E1F7C98224E0AE0177
:102A20004F5F5F4FCF010E94A0140F900F900F9047
:102A30000F90DF91CF911F910F91FF90EF90DF905A
:102A4000CF9008958C2D8295880F807E8A8383E0B5
:102A5000D694C7948A95E1F7E0CFFF920F931F9326
:102A6000CF93DF9300D0CDB7DEB78C01F62EFC01FB
:102A70004081518162817381CE0101960E94981339
:102A800089819A810E94150E60E0F80184890E9474
:102A9000340683E00E9429098F2D0E94290980E0D5
:102AA0000E942909F82E61E0F80184890E94340609
:102AB0008F2D0F900F90DF91CF911F910F91FF906D
:102AC00008950F931F93CF93DF9300D000D0CDB71D
:102AD000DEB7182F109212051092130510921405EC
:102AE000109215051092160544E0BE016F5F7F4FEE
:102AF0000E94ED132A81898138E0839FC00111244F
:102B0000422F50E065E0559547956A95E1F7840FAF
:102B1000951F092E000CAA0BBB0B809313059093F5
:102B20001405A0931505B093160523FF29C032E0C4
:102B3000880F991FAA1FBB1F3A95D1F72370820FE8
:102B4000911DA11DB11DBA2FA92F982F88272B8168
:102B5000820F911DA11DB11DBA2FA92F982F882773
:102B60002C81820F911DA11DB11D8093130590939F
:102B70001405A0931505B093160581E08093120506
:102B80006FEF610F8EE095E00E942D15082F64E035
:102B9000610F8EE095E00E942D1503FF16C091E0B5
:102BA00090932005482F4F704093170568E175E01A
:102BB00085E0810F0E94ED130F900F900F900F9002
:102BC000DF91CF911F910F91089510922005EACFC8
:102BD0000F931F93CF938C01C62F262F40EE6FE0EB
:102BE0000E9465146FE0C8010E942D15982F907EF9
:102BF00081E09C1301C080E0CF911F910F91089557
:102C00000F931F93CF93DF9300D0CDB7DEB78C0126
:102C1000DC0193968C91939787FF0EC05C964D9143
:102C20005D916D917C915F97CE0101960E94981302
:102C300089819A810E94150EF80183A906A4F7A53F
:102C4000E02D90818095892380830F900F90DF91F4
:102C5000CF911F910F910895AF92BF92CF92DF92C3
:102C6000FF920F931F93CF93DF938C018AEC94E034
:102C70000E940016E8012196F801F490FA94FFEF03
:102C8000FF1609F446C0FE0164918AEC94E00E94AC
:102C9000420B5E01F2E0AF0EB11CFE0131961491C1
:102CA000C12FCF776501DC2FD15050F0F601649130
:102CB0008AEC94E00E948A0AFFEFCF1ADF0AF4CF71
:102CC000CA0DDB2DD11D8091FD04E091F804F09137
:102CD000F9049081892B80838091FD04E091F804B0
:102CE000F091F904908180958923808317FFC6CFE6
:102CF0008E010F5F1F4FFE01649170E06F3F710501
:102D000011F464EF71E090E080E00E949708E80120
:102D1000B5CF8AEC94E0DF91CF911F910F91FF9096
:102D2000DF90CF90BF90AF900C940C0EEF92FF927B
:102D30000F931F93CF93DF9340E050E0BA018AECEA
:102D400094E00E94660986E097E00E942C1689EFC5
:102D500096E00E942C168EEC96E00E942C168AECCF
:102D600094E00E94001666E38AEC94E00E94420B15
:102D700060EC8AEC94E00E948A0A8AEC94E00E945B
:102D80000C0EC2E0C093070560E08AEC94E00E945C
:102D90006A0C8FEF97E09093DB048093DA04109233
:102DA000DD041092DC0470E060E08AEC94E00E94A4
:102DB000E31160E08AEC94E00E946A0CC093DE04A8
:102DC000C2E0D0E0D093D704C093D60484E190E071
:102DD0009093D9048093D80461E677E08AEC94E07C
:102DE0000E94B104D093D704C093D60486E290E049
:102DF0009093D9048093D8046BE577E08AEC94E053
:102E00000E94B104D093D704C093D60488E390E025
:102E10009093D9048093D80465E577E08AEC94E038
:102E20000E94B104D093D704C093D6048AE490E002
:102E30009093D9048093D8046FE477E08AEC94E00F
:102E40000E94B104D093D704C093D6048CE590E0DF
:102E50009093D9048093D80469E477E08AEC94E0F5
:102E60000E94B104D093D704C093D604CEE6D0E03C
:102E7000D093D904C093D80465E477E08AEC94E059
:102E80000E94B1048FE390E09093D7048093D6041E
:102E9000D093D904C093D80461E477E08AEC94E03D
:102EA0000E94B104E12C9CEFF92E00EA10E020E82A
:102EB00030E050E040E070E060E08AEC94E00E9496
:102EC0000C11D0E0C0E0E12C8CEFF82E8E0120E850
:102ED00030E0AE0170E060E08AEC94E00E946B119B
:102EE0006296C23AD10579F700E910E02EE330E0AE
:102EF00042E150E06EE370E08AEC94E00E946B11D6
:102F00008FEF9FEF9093DB048093DA041092DD043F
:102F10001092DC04DF91CF911F910F91FF90EF9001
:102F20000895FB0101900020E9F73197AF01461B9E
:102F3000570BDC01ED91FC910280F381E02D0994A7
:102F4000CF93DF93BC0181EF93E00E94B104EC01C9
:102F500064E873E081EF93E00E9491178C0F9D1F4E
:102F6000DF91CF9108954F925F926F928F929F92CF
:102F7000AF92BF92CF92DF92FF920F931F93CF93A6
:102F8000DF9300D000D0CDB7DEB760931305709308
:102F90001405809315059093160510922005109244
:102FA000120540931705F901A8E1B5E0C90108969B
:102FB00021912D93E817F907D9F7B12CA12C409056
:102FC000950150909601609097014E0184E0880E23
:102FD000911C49825A826B82FE0131966F01FE2E4E
:102FE0000D2DF60111916F01612F8EE095E00E9489
:102FF0002D1583FD0DC01F5F80E0FFEFAF1ABF0AE4
:10300000823061F482E3A816B10419F716E066C0B5
:103010008C149D0431F710E082E0EFCF92E3A91603
:10302000B104A1F32091170548E155E065E0610F77
:103030008EE095E00E94A01480912005813029F453
:10304000809117058064809317056091170584E0CF
:10305000810F0E94B7138091130590911405A091E0
:103060001505B091160520911205213009F05AC0BE
:103070008C839B83CD01AA27BB27282F220F220FE9
:10308000220F207E382F33703860232B2A8335E0BF
:10309000969587953A95E1F7898324E04F2D502F37
:1030A000612F8EE095E00E94A014115028E048E0C6
:1030B000612F8EE095E00E946514D12CC12CEFEFBA
:1030C000CE1ADE0A612F8EE095E00E942D1583FF57
:1030D00037C0F2E3CF16D10491F717E08091500585
:1030E0009091510501968F30910508F042C0909360
:1030F00051058093500565EB76E081EF93E00E94E7
:10310000B104612F81EF93E00E94750564E873E0DC
:1031100081EF93E00E949117809152058F5F809319
:10312000520514C09C0193E0369527959A95E1F7D6
:1031300029838295880F807E8A831C821B82ADCF73
:1031400082E3C816D10449F2109252050F900F90F5
:103150000F900F90DF91CF911F910F91FF90DF9013
:10316000CF90BF90AF909F908F906F905F904F9057
:103170000895109251051092500580E280934F05FA
:10318000BACF8F929F92AF92BF92EF92FF920F931E
:103190001F93CF93DF93CDB7DEB7A1970FB6F89407
:1031A000DEBF0FBECDBF7C01FA01CB0119A22230D8
:1031B00008F42AE08E010F5D1F4F822E912CB12C56
:1031C000A12CBF01A50194010E94402BF901CA0165
:1031D0006A300CF5605DD8016E938D01232B242B92
:1031E000252B79F790E080E0109721F0BD01C70111
:1031F0000E949117A1960FB6F894DEBF0FBECDBF07
:10320000DF91CF911F910F91FF90EF90BF90AF9002
:103210009F908F900895695CDECFCF92DF92EF92FE
:10322000FF920F931F93CF93DF9377FF21C06A0123
:103230007B01EC01E881F9810190F081E02D6DE2E4
:1032400009958C0144275527BA014C195D096E096F
:103250007F092AE0CE010E94C118800F911FDF91E3
:10326000CF911F910F91FF90EF90DF90CF90089535
:103270002AE0DF91CF911F910F91FF90EF90DF90A7
:10328000CF900C94C118EF92FF920F931F93CF939E
:10329000DF93EC01062F10E08BE4E82EF12CF09286
:1032A000D704E092D6041093D9040093D80469E6B9
:1032B00076E08AEC94E00E94B104F092D704E092A8
:1032C000D6041093D9040093D804CA30D10534F43D
:1032D00067E676E08AEC94E00E94B104AE01DD0F6F
:1032E000660B770B8AEC94E0DF91CF911F910F91E1
:1032F000FF90EF900C940D19462F50E070E060E0C5
:103300002AE00C94C1188F929F92AF92BF92CF92F5
:10331000DF92EF92FF926B017C018FE390E090933C
:10332000D7048093D60450E05093D9044093D80436
:1033300026E636E64EE151ECC7010E94A12A87FD40
:103340000BC020E030E0A901C701B6010E9442296C
:1033500063E776E087FD2BC020E030E0A901C701DC
:10336000B6010E94A12A87FD0CC020E030E040E2B7
:1033700051E4C701B6010E94422960E776E087FD6B
:1033800016C020E030E040E251E4C701B6010E94DF
:10339000A12A87FD10C020E030E048EC52E4C701CC
:1033A000B6010E94422987FF06C06EE676E08AECED
:1033B00094E00E94B104A7019601C701B6010E94E2
:1033C000132B6EE072E081111AC046015701E89498
:1033D000B7F82FEF3FEF4FE75FE7C501B4010E9459
:1033E000132B811118C02FEF3FEF4FE75FE7C501A7
:1033F000B4010E944229181674F462E172E08AEC6A
:1034000094E0FF90EF90DF90CF90BF90AF909F90AF
:103410008F900C9491172FEF3FEF4FE75FE4C701B8
:10342000B6010E94A12A18161CF466E172E0E7CFEB
:103430002FEF3FEF4FE75FECC701B6010E94422933
:1034400087FDF3CF20E030E0A901C701B6010E945B
:10345000422987FF09C06DE28AEC94E00E943B108C
:10346000F7FAF094F7F8F0942DEC3CEC4CE45DE3C3
:10347000C701B6010E94D6284B015C010E94C029F9
:103480006B017C010E94EF299B01AC01C501B401D5
:103490000E94D5284B015C012AE0B701A6018AEC05
:1034A00094E00E94C1186EE28AEC94E00E943B1006
:1034B00020E030E040E251E4C501B4010E94A62AB8
:1034C0000E94C029AB0170E060E02AE08AEC94E041
:1034D000FF90EF90DF90CF90BF90AF909F908F9034
:1034E0000C94C1180C949117CF92DF92EF92FF9237
:1034F0000F931F93CF93DF93EC01062F69017A019D
:103500006AE172E081EF93E00E94721A60E8CE01F6
:103510000E94E815182F64E372E0811118C097012A
:10352000023039F1033049F10130F9F0860140E011
:1035300060E0CE010E94E8146D89CE010E94E8157A
:10354000182F6AE572E0811102C069E972E081EF2B
:1035500093E00E94721A812FDF91CF911F910F91FA
:10356000FF90EF90DF90CF900895860140E064E0F7
:10357000E0CF860140E068E0DCCF860140E060E11A
:10358000D8CFBF92CF92DF92EF92FF920F931F930B
:10359000CF93DF9300D0CDB7DEB7809124058111A2
:1035A00066C11092370510923905109238051092B5
:1035B0005205109253058AE0E82EF12C93E2C92EB1
:1035C000D12C20E4B22E10914E050E94300940917A
:1035D0000E0550910F056091100570911105CE01F7
:1035E00001960E94981389819A810E94150E60E0CD
:1035F000809122050E94340680EC0E94290961E036
:10360000809122050E943406C6010197F1F7B0921D
:10361000230560E88EE095E00E94E81567EB72E014
:1036200081111AC160EE72E081EF93E00E94721A7C
:10363000113009F476C008F426C1123009F426C10D
:103640006AE073E081EF93E00E94721AEF2809F4B8
:103650000AC185E796E00E94A0176FE673E081EF4C
:1036600093E00E94721A60E88EE095E00E94E815EF
:1036700067EB72E0811116C008EF1FEF2FEF3FEFED
:1036800040E060E28EE095E00E94E814609123053E
:103690008EE095E00E94E81567E873E0811102C0B2
:1036A00064EC73E081EF93E00E94721A21E030E055
:1036B00040E050E060E08EE095E00E94741A22E065
:1036C00030E040E050E061E08EE095E00E94741A46
:1036D00025E030E040E050E062E08EE095E00E94BE
:1036E000741A26E030E040E050E063E08EE095E0C0
:1036F0000E94741A28E048E06FE08EE095E00E9496
:1037000065146FE08EE095E00E942D151092230560
:1037100060E08EE095E00E94E81581E0809324054A
:10372000A6C013E805EE61E48AE20E94B713602F99
:1037300089E20E94B713612F88E20E94B71368E202
:1037400073E081EF93E00E94721A00E010E09801AC
:1037500041E060E28EE095E00E94E81400E010E0B5
:10376000980141E064E28EE095E00E94E81400E0F8
:1037700010E0980141E060E08EE095E00E94E814DE
:1037800000E010E0980140E064E08EE095E00E94E7
:10379000E81400E010E0980141E068E08EE095E078
:1037A0000E94E81400E010E0980140E060E18EE043
:1037B00095E00E94E81400E010E0980141E064E127
:1037C0008EE095E00E94E81400E010E0980140E0EF
:1037D00068E18EE095E00E94E81410E360E0812F3C
:1037E0000E94B71360E080E1810F0E94B71360E090
:1037F00080E2810F0E94B7131F5F1E3379F760E0EC
:1038000080E60E94B71360E080E70E94B71363E090
:103810008BE20E94B7136CE38CE00E94B71360E068
:103820008DE00E94B71324E644E660E68EE095E062
:103830000E94651420E640E660E78EE095E00E9475
:103840006514609123058EE095E00E94E8158823B9
:1038500009F4FCCE67E473E081EF93E00E94721AF2
:10386000E114F104B9F485E996E00E94A0170F90E5
:103870000F90DF91CF911F910F91FF90EF90DF900C
:10388000CF90BF90089514E806EF4DCF13E805EEF2
:1038900060E84ACF81E0E81AF10864E670E080E071
:1038A00090E00E9497088FCE1F920F920FB60F9252
:1038B00011242F933F934F935F936F937F938F9335
:1038C0009F93AF93BF93EF93FF9381EF93E00E9499
:1038D0005305FF91EF91BF91AF919F918F917F9190
:1038E0006F915F914F913F912F910F900FBE0F906D
:1038F0001F9018951F920F920FB60F9211242F93BD
:103900008F939F93EF93FF93E0910104F091020452
:103910008081E0910704F091080482FD1BC0908132
:1039200080910A048F5F8F7320910B04821741F0FE
:10393000E0910A04F0E0EF50FC4F958F80930A0469
:10394000FF91EF919F918F912F910F900FBE0F904C
:103950001F9018958081F4CF1F920F920FB60F928F
:1039600011242F933F938F939F93AF93BF93809195
:10397000E2039091E303A091E403B091E503309159
:10398000E10323E0230F2D3758F50196A11DB11D4A
:103990002093E1038093E2039093E303A093E40375
:1039A000B093E5038091E6039091E703A091E803CB
:1039B000B091E9030196A11DB11D8093E603909398
:1039C000E703A093E803B093E903BF91AF919F9100
:1039D0008F913F912F910F900FBE0F901F901895D0
:1039E00026E8230F0296A11DB11DD2CF1F920F9280
:1039F0000FB60F9211240F931F932F933F934F9362
:103A00005F936F937F938F939F93AF93BF93EF9346
:103A1000FF930E94CA080091ED031091EE032091DC
:103A2000EF033091F0036017710782079307B8F036
:103A300080916F008D7F80936F0082E08093810082
:103A400081E080938000E091EA03F091EB039081A4
:103A50008091EC038095892380831092EC03E091A0
:103A6000EA03F091EB0380819091EC038927808336
:103A7000FF91EF91BF91AF919F918F917F916F9146
:103A80005F914F913F912F911F910F910F900FBE1A
:103A90000F901F9018950F931F93CF93DF93E1EF33
:103AA000F3E01382128288EE93E0A0E0B0E084831A
:103AB0009583A683B78380ED91E09183808385EC25
:103AC00090E09587848784EC90E09787868780ECE8
:103AD00090E0918B808B81EC90E0938B828B82ECD9
:103AE00090E0958B848B86EC90E0978B868B118E83
:103AF000128E138E148EC0EAD4E083E090E0998396
:103B000088831A8280E18B871D861C861E8661E071
:103B10000E94A80689E090E098878F830E94A52BD9
:103B2000FC019A87898799E0DF01892F1D928A9588
:103B3000E9F7E3EBF7E0E491F0E0EE0FFF1FE75663
:103B4000F84F259134913D872C87E5E9F7E0E49122
:103B5000EE871F86EDE9F4E01082CFEFC183128279
:103B6000EAE9F4E0C08311821282E7E9F4E010820E
:103B70001182C283E4E9F4E0C083C183C283E1E936
:103B8000F4E0C08385E581831282EEE8F4E01082E0
:103B900011821282E5E5F5E015821386D1E0D58722
:103BA00017861686948762E089E00E94A8060EE0D8
:103BB00015E080E291EAA7E0B0E0F801808391830C
:103BC000A283B38387E0848B61E00E94340661E0C6
:103BD000D80154968C910E94A806F801168E15A65D
:103BE0008AE086AB12AE13AE15AE14AE10924F053E
:103BF00010925105109250051092520510925305E3
:103C00001092540582E080934E05AAECB4E013961E
:103C10001C921E92129720E830E015963C932E934A
:103C2000149780EA90E017969C938E9316971996B6
:103C30003C932E9318971B969C938E931A975596A8
:103C40001C9255971D961C921E921C971F961C92B3
:103C50001E921E975496DC9354978FEF9FEF5396C6
:103C60009C938E93529751969C938E935097569611
:103C7000DC93569757961C92579759961C921E9212
:103C8000589788E090968C93909784E091968C93C7
:103C900091979296CC93929720EB34E05B963C936D
:103CA0002E935A979396CC9393979496CC939497FC
:103CB0009596CC9395975C961D921D921D921C92A1
:103CC0005F979B961C921E929A97D2961C92D297BF
:103CD00097961C921E929697D0961C92D097999682
:103CE0001C921E929897D1961C92D197E7EAF7E022
:103CF000E491F0E0EE0FFF1FE756F84F2591349165
:103D00009D963C932E939C97E9E8F7E0E491D49636
:103D1000EC93D497EBEAF7E0E491F0E0EE0FFF1FAD
:103D2000E756F84F259134919F963C932E939E979A
:103D3000EDE8F7E0E491D396EC93D39722EE31E0EF
:103D400011963C932E93DE961C9210920A051092C7
:103D5000090510920B059CE090930C0580930D05CE
:103D6000EBEBF4E0108284E090E092838183948313
:103D70008383968385831782108611861286138625
:103D800014861586168660E08FE00E94A80661E022
:103D900081E10E94A8061092BA04C5EBD4E083E149
:103DA000888382E1898384E690E09C838B8360E052
:103DB00083E10E94A80660E089810E94A80660E075
:103DC00088810E94340660E089810E9434060E9446
:103DD000CA086093B1047093B2048093B3049093C3
:103DE000B404DF91CF911F910F910895CF93DF938A
:103DF000CDB7DEB7CD57D1400FB6F894DEBF0FBEBA
:103E0000CDBF789484B5826084BD84B5816084BD63
:103E100085B5826085BD85B5816085BD80916E0068
:103E2000816080936E001092810080918100826099
:103E300080938100809181008160809381008091D6
:103E400080008160809380008091B10084608093C5
:103E5000B1008091B00081608093B00080917A00C1
:103E6000846080937A0080917A00826080937A00E7
:103E700080917A00816080937A0080917A008068D6
:103E800080937A001092C10018E109E20FB6F8940D
:103E9000A895109360000FBE00936000E0910104AC
:103EA000F091020482E08083E091FD03F091FE0333
:103EB0001082E091FF03F091000480E18083109272
:103EC0000904E0910504F091060486E08083E09106
:103ED0000304F0910404808180618083E0910304F5
:103EE000F0910404808188608083E0910304F09164
:103EF0000404808180688083E0910304F0910404CD
:103F000080818F7D808388E695E00E94A0178AE0FB
:103F10008093B70462ED74E00E9458070E949616E1
:103F200061E085E00E94A80661E085E00E94A806A5
:103F30008FEF93E00E9462060FB6F894A895109355
:103F400060000FBE0093600085E00E94470440912E
:103F50009A0450919B0460919C0490E080E00E9440
:103F6000080440919D0450919E0460919F0481E05B
:103F700090E00E9408044091910450919204609155
:103F8000930482E090E00E9408040E94F4070E94DB
:103F9000270968EE73E080E090E00E9497080E9495
:103FA000270968EE73E080E090E00E9497080E9485
:103FB00027090E94CA086093B1047093B2048093E9
:103FC000B3049093B4046E0121EAC20ED11CAE0179
:103FD0004F5F5F4FCD58DE4F59834883C357D14061
:103FE00012E0212E312C0E94C11A809124058823D1
:103FF00011F40C94262880915305833314F00E9409
:10400000C11A0E943414837011F40C94C1280E94C8
:10401000341480FF54C081E60E94611520E041E025
:104020006CE28EE095E00E94651480911205882371
:1040300089F08091130590911405A0911505B09118
:104040001605B0688093130590931405A093150589
:10405000B093160580912005882389F0809113057F
:1040600090911405A0911505B0911605B064809348
:10407000130590931405A0931505B0931605809031
:10408000130590901405A0901505B0901605809129
:104090001705A8E1B5E0FE013196282F30E0AF0109
:1040A000CD58DE4F68817981C357D140461B570BED
:1040B000421753070CF087C79D919193F0CF81FD74
:1040C00002C00C94C12881E70E94611520E042E003
:1040D000A7CF8DED95E00E94A01780E280934F0559
:1040E000B5C772E087169104A104B10431F5883098
:1040F00009F59A81898190933105809332059C81DD
:104100008B8190933305809334059E818D819093AC
:104110003505809336058885809347058F81809388
:10412000460580913B058F5F80933B0581E080933E
:1041300038058CC788EB95E0CECF95E089169104C1
:10414000A104B10471F5883021F59A818981909399
:104150002D0580932E059C818B8190932F05809354
:1041600030058D81809343058E81853108F084E18F
:10417000809344058F818093480588858093490505
:1041800081E08093390580913B058F5F80933B05EB
:104190005DC780E280934F0583E995E00E94A017F8
:1041A00055C7E6E08E169104A104B10409F04EC78C
:1041B000883009F59B818A8190934A0580934B054D
:1041C0008C8180933E059E818D8190933C058093E8
:1041D0003D058F8180934505988580E090934C053F
:1041E00080934D0580913B058F5F80933B0581E077
:1041F00080933A052BC780E280934F058EE695E0C9
:10420000CDCF80915405082E000C990B2817190664
:1042100049F4809153058F5F80935305893264F18F
:104220000E94C11A0E94CA080091B1041091B20400
:104230002091B3043091B404601B710B820B930B7B
:10424000693E73408105910550F00E94CA08609351
:10425000B1047093B2048093B3049093B40480E0EB
:1042600090E0892B09F4BFCE0E943F05882309F412
:10427000AECE0E940000A7CE10925305D3CF0E946D
:10428000CA086093C2047093C3048093C4049093DB
:10429000C5048FE00E940B062091BB04813009F019
:1042A00011C18091BC049091BD0401968A309105A2
:1042B00014F081E090E09093BD048093BC04211140
:1042C00003C081E08093080581E08093BB04809166
:1042D000BC049091BD0490930A058093090581E088
:1042E000F090BB04F11022C6882319F081E080937E
:1042F000BA0480916205882309F455C110916105C3
:10430000812F90E0FC01EB57F84F5490FC01ED55E4
:10431000F84F8490CE58DE4F1882C257D140CF5804
:10432000DE4F1882C157D140C059DE4F1882C057A6
:10433000D140C159DE4F1882CF56D140C259DE4F0D
:104340001882CE56D14061E00E9434066AEF70E0D8
:1043500080E090E00E94970861E0812F0E94A8060B
:1043600060E0812F0E94340662E070E080E090E01F
:104370000E94970861E0812F0E9434068BE990E04B
:104380000197F1F762E0812F0E94A80683E290E096
:104390000197F1F7482D652D80E00E949704892B45
:1043A00009F478C0482D652D81E00E949704892B7F
:1043B00009F470C08E010F5F1F4F3801482D652D25
:1043C00080E00E949704F30191838083482D652D3E
:1043D00081E00E949704F30193838283F4E06F0EDF
:1043E000711CC614D70451F780E0F8012081318197
:1043F000428153812115310509F44CC04115510505
:1044000009F448C0882329F0982F977011F4295097
:104410003109E82FE695E695E6956EE671E06C0FBA
:104420007D1F6E0F711DFB019081990F24173507B9
:1044300008F481C090838F5F0C5F1F4F8832A9F60C
:10444000C259DE4F8881CE56D14090E0C159DE4F2F
:104450006881CF56D14070E0C059DE4FA881C05767
:10446000D1402A2F30E0CF58DE4FE881C157D140EC
:10447000F0E0CE58DE4FB881C257D140AC01460FB4
:10448000571F420F531F4E0F5F1F5527B4171506B6
:1044900009F453C022E020935A058091630590915E
:1044A0006405019690936405809363050F9730F03F
:1044B00010926405109263052093600581E080935B
:1044C000BA0479C0222309F45AC68091C00490919D
:1044D000C1049093BF048093BE048091BC0490916A
:1044E000BD049093C1048093C0041092C60410923E
:1044F000C7041092C8041092C9041092BB04109211
:1045000008050597039708F03AC60E94CA082B01D0
:104510003C0128EE33E0D5010E94982B460E571E31
:10452000681E791E4092C6045092C7046092C80467
:104530007092C90424C691607DCF322F2227222792
:104540003F77E20FF31FA7FF03C0F195E195F10953
:104550002091570530915805E20FF31FF09356054F
:10456000E0935505982F8827680F791F072E000CB8
:10457000880B990B0E94F1292DEC3CEC4CEC5DE38F
:104580000E94A62A0E94B92920915D0530915E05FE
:10459000C901860F971F90935C0580935B0510926D
:1045A0006405109263058091620591E089278093EC
:1045B0006205FF24F39489E2E5E2F5E0DE01A45E02
:1045C000BE4F01900D928A95E1F7C25DDE4F888162
:1045D000CE52D140882309F45CC0C45EDE4F88808F
:1045E000CC51D140C55CDE4F7880CB53D140072DF4
:1045F00010E0809102019091030108171907D1F092
:10460000872D0E9447046EE076E081EF93E00E94E0
:10461000B104672D81EF93E00E947C1964E873E098
:1046200081EF93E00E949117109303010093020120
:104630000E94F407082D10E0809100019091010183
:104640000817190731F1882D8695869570E060E08E
:1046500083700E94730861E070E0882D83700E946F
:10466000730840918E0450918F046091900487FEEE
:1046700006C040919104509192046091930482E0AD
:1046800090E00E9408040E94F40710930101009337
:104690000001FF2019F081E08093BA044090C60425
:1046A0005090C7046090C8047090C904CA5BDE4F84
:1046B0009882C654D140C958DE4F7881C757D1403F
:1046C000C95BDE4F7883C754D140C858DE4F88811C
:1046D000C857D140C95ADE4F8883C755D140C15A07
:1046E000DE4F488259826A827B82CF55D140C758BB
:1046F000DE4F9881C957D140CC59DE4F9883C456BC
:10470000D140C659DE4FB982A882CA56D14089E24B
:10471000FE01EB5BFE4FDE01A653BF4F01900D92F1
:104720008A95E1F7C85BDE4F8880C854D140C55BED
:10473000DE4F1881CB54D140C25ADE4F0881CE558E
:10474000D140C758DE4FF881C957D140EF2FF0E074
:10475000CB58DE4FF983E883C557D1409E2F990F80
:1047600080E067E070E00E942C2B7B0161E085E037
:104770000E94A80660E0E114F10431F02FEFE21688
:10478000F10409F0C9C061E085E00E9434061123FC
:1047900071F03FE7831659F090920601C958DE4F39
:1047A0004881C757D1404093050180920401809110
:1047B0000805882309F4B4C080910B05811109C054
:1047C00070E060E08AEC94E00E94E31181E0809365
:1047D0000B0565E070E07093D7046093D6043092C7
:1047E000D9042092D80480E09CEF9093DB0480935E
:1047F000DA041092DD041092DC0480910905909196
:104800000A052BE0289FB001299F700D1124695FD4
:104810007E4F8AEC94E00E94721A88E199E20FB60A
:10482000F894A895809360000FBE90936000C45BDD
:10483000DE4F8881CC54D140883011F40E94D608D4
:104840001092BA0480918D0190918E01CB58DE4F69
:1048500028813981C557D1408217930791F0309351
:104860008E0120938D0189E02430310544F0C75832
:10487000DE4F8881C957D14082508770886080930D
:10488000B704C958DE4F3881C757D140832F90E015
:1048900020918B0130918C0182179307E1F0C85869
:1048A000DE4F4881C857D1404423A9F090938C0132
:1048B00080938B0154E6959E800D911D1124BC01BF
:1048C00097FF04C066277727681B790B97FF2CC3D7
:1048D00086EF0E94580780912405882339F0809143
:1048E00052058B300CF447C30E94C11A89E2CD589F
:1048F000DE4FE881F981C357D140282F11922A95C4
:10490000E9F79AE098A3FE013196A5E2B5E001909F
:104910000D928A95E1F786CCC7010E94620637CFD7
:1049200010169CF570E060E08AEC94E00E94E311C0
:104930003092D7042092D6048AE490E09093D90470
:104940008093D80463E576E08AEC94E00E94B10499
:104950003092D7042092D6048CE590E09093D9044D
:104960008093D8046AE476E08AEC94E00E94B10473
:10497000402F000F550B660B770B8AEC94E00E94DA
:104980000D1981E080930B0548CFC353DF4F888218
:10499000CD5CD040C053DF4F1883C05DD040CD51B7
:1049A000DF4F0883C35ED04089E2FE01E653FF4F2C
:1049B000D60101900D928A95E1F7C653DF4FA8808A
:1049C000CA5CD040C253DF4F9881CE5CD040C658FD
:1049D000DE4F9883CA57D140CF52DF4FE881C15D87
:1049E000D040C558DE4FE883CB57D140C052DF4F8F
:1049F0000881C05ED040C651DF4FF880CA5ED0400B
:104A0000C351DF4F1881CD5ED040C251DF4FB88017
:104A1000CE5ED04080910B05882321F010920B05CB
:104A20000E949616C858DE4FF881C857D140FF2320
:104A300009F42FC225E030E03093D7042093D60448
:104A40003092D9042092D80431E0F31288C1109238
:104A5000DB041092DA0480EE97E09093DD048093FB
:104A6000DC04002309F486C1C658DE4F6881CA57AA
:104A7000D1406B3008F06AE05BE0659FB001112423
:104A8000695F7E4F8AEC94E00E94721A6FEF7FEFAD
:104A90007093DB046093DA041092DD041092DC045E
:104AA000E12FF0E0EE0FFF1FE455FE4FE080F180B4
:104AB0000AE010E02CE030E040E750E06AE270E00D
:104AC0008AEC94E00E94D209EB2DF0E0EE0FFF1F7C
:104AD000E455FE4FE080F1802CE030E040E750E00C
:104AE00067E670E08AEC94E00E94D209EA2DE37058
:104AF000F0E0EE0FFF1FEC55FE4FE080F1802CE060
:104B000030E044E950E063E070E08AEC94E00E9419
:104B1000D209EA2DE695E695E370F0E0EE0FFF1F6F
:104B2000EC55FE4FE080F1802CE030E044E950E0AD
:104B300062E170E08AEC94E00E94D209A7FAEE27C5
:104B4000E0F9F0E0EE0FFF1FE056FE4FE080F1804D
:104B50002CE030E044E950E061E270E08AEC94E05F
:104B60000E94D209F601A788B08CF68DC358DE4F9B
:104B7000F883CD57D140F601F2A1C458DE4FF88337
:104B8000CC57D140F12CE12C0DE010E02FE430E0C7
:104B900042E950E060E370E08AEC94E00E94D209C0
:104BA00081E08093DE0480E390E09093D7048093CB
:104BB000D60487E990E09093D9048093D80480913B
:104BC0000D05815009F4DDC080930D0580910D0520
:104BD000823009F426C108F0D6C0813009F43AC108
:104BE00082E0B82EB092DE04F12CE12C00E110E05E
:104BF0002DE730E040E850E062E070E08AEC94E0BD
:104C00000E94D2096FEF7FEF7093DB046093DA04A8
:104C10001092DD041092DC043092D7042092D60466
:104C200080E890E09093D9048093D804692D8AECB1
:104C300094E00E947C1967E276E08AEC94E00E949E
:104C4000B104C958DE4F6881C757D1408AEC94E05F
:104C50000E947C1965E276E08AEC94E00E94B1043F
:104C6000682D8AEC94E00E947C19C558DE4F78814B
:104C7000CB57D140772301F18DE690E09093D70494
:104C80008093D60485E890E09093D9048093D8046B
:104C900081E08093DE046BE376E08AEC94E00E948E
:104CA000B104C558DE4F6881CB57D1408AEC94E0FF
:104CB0000E947C19B092DE044FEF5FEF5093DB044B
:104CC0004093DA041092DD041092DC04F60183892B
:104CD000882341F1A684B78400891189648575858C
:104CE000072E000C880B990B0E94F12920E030E080
:104CF00040E251E40E94472946E20E9483196CE594
:104D0000C5010E944319B801110F880B990B0E942D
:104D1000F12920E030E040E251E40E94472948E3D5
:104D20000E948319F6018489882309F4E4C002856E
:104D3000138560857185072E000C880B990B0E94E6
:104D4000F12920E030E040E251E40E94472944E1AB
:104D50000E9483196AE4C8010E9443195ECD4FEF97
:104D60005FEF5093DB044093DA041092DD0410925D
:104D7000DC0477CE6EE376E08AEC94E00E94B10426
:104D800085CE84E021CF833041F1843009F028CFF3
:104D9000C358DE4F1881CD57D1401370133009F43A
:104DA0001FCF68E376E08AEC94E00E94B104E12F23
:104DB000110FFF0BEE0FFF1FE856FE4FE080F18052
:104DC0000AE010E02EE030E044E950E06EE370E0ED
:104DD0008AEC94E00E94D20903CF4114510461048B
:104DE000710409F4FDCE63E376E08AEC94E00E945E
:104DF000B1040E94CA08A3019201261B370B480B7D
:104E0000590BCA01B90128EE33E040E050E00E949E
:104E1000402BBA01A9012AE08AEC94E00E94C11853
:104E2000DFCEC458DE4F3881CC57D140332341F018
:104E3000C658DE4F4881CA57D140433009F4D0CE1E
:104E40006DE276E08AEC94E00E94B104A50170E086
:104E500060E0E1CF609106018AEC94E00E947C1949
:104E60006BE276E08AEC94E00E94B1046091050167
:104E70008AEC94E00E947C1969E276E08AEC94E086
:104E80000E94B104609104018AEC94E00E947C19B4
:104E9000A7CE85E090E09093D7048093D60430921B
:104EA000D9042092D80480910C058630B8F4E0E053
:104EB000FCEFF093DB04E093DA04F093DD04E0937D
:104EC000DC046AE671E08AEC94E00E94721A809138
:104ED0000C05815071F080930C05EECE20E03CEF84
:104EE0003093DB042093DA041092DD041092DC048A
:104EF000E8CF8CE0F0CF6091550570915605072EF4
:104F0000000C880B990B0E94F12920E030E040E270
:104F100051E40E94472944E10E9483196AE4809188
:104F20005B0590915C0518CF8AE0D3CC8091BC04DE
:104F30009091BD0465E070E07093D7046093D6044F
:104F40003092D9042092D804E0E0FCEFF093DB0427
:104F5000E093DA041092DD041092DC042BE0289F29
:104F6000B001299F700D1124695F7E4F8AEC94E097
:104F70000E94721AB0CC1091C00480915B05909190
:104F80005C05209155053091560539832A839B8312
:104F90008C839E012F5F3F4F44E063E070E080E030
:104FA00090E00E94B317C259DE4F1883CE56D1400D
:104FB0009E0122593E4F41E064E070E080E090E0C5
:104FC0000E94B31793CC41E084169104A104B1046C
:104FD00009F087C8883009F07CC88981809326054C
:104FE0008A81809327058B81982F9F77909328053E
:104FF000807880932B058C81809325058D8180930B
:1050000029051092C2041092C3041092C404109295
:10501000C50490E09093C1048093C0048E81809376
:105020002A0580914F0510924F0590915A051092D4
:105030005A05892B9F81892B80932C0580913B05F4
:105040008F5F80933B0581E0809337052091280591
:1050500080913B05843009F0D4C820935405109208
:10506000530589E2E5E2F5E0DE01AD50BF4F019066
:105070000D928A95E1F789E2FE01ED50FF4FDE01C6
:10508000AB5BBE4F01900D928A95E1F7CC50DF4F9C
:105090009880C45FD040CB50DF4FF881C55FD040CF
:1050A000C958DE4FF883C757D140CB5FDE4F288108
:1050B000C550D140C858DE4F2883C857D140CE5E76
:1050C000DE4F3881C251D140C758DE4F3883C957AF
:1050D000D140C85EDE4FA880B980C851D140409011
:1050E000C6045090C7046090C8047090C90441146D
:1050F00051046104710479F10E94CA0846165706EA
:105100006806790640F562E076E081EF93E00E9460
:10511000B1044091BE045091BF04052E000C660BF3
:10512000770B81EF93E00E940D1964E873E081EF43
:1051300093E00E9491178091BE049091BF049093D8
:10514000C1048093C0041092C6041092C704109248
:10515000C8041092C9040E94CA080091C2041091A8
:10516000C3042091C4043091C504601B710B820BF1
:10517000930B693E73408105910508F080C880E07B
:10518000AFC8809153058F5F809353054BC8CF9371
:10519000DF93C0EAD4E060E08B850E94A806898591
:1051A0009A85DF91CF910C94412C5058BB27AA27A8
:1051B0000E94ED280C94672A0E94592A38F00E9418
:1051C000602A20F039F49F3F19F426F40C94562AF3
:1051D0000EF4E095E7FB0C94502AE92F0E94782A00
:1051E00058F3BA17620773078407950720F079F41C
:1051F000A6F50C949A2A0EF4E0950B2EBA2FA02D4A
:105200000B01B90190010C01CA01A0011124FF2773
:10521000591B99F0593F50F4503E68F11A16F0406E
:10522000A22F232F342F4427585FF3CF469537956D
:105230002795A795F0405395C9F77EF41F16BA0B32
:10524000620B730B840BBAF09150A1F0FF0FBB1FE0
:10525000661F771F881FC2F70EC0BA0F621F731F29
:10526000841F48F4879577956795B795F7959E3F86
:1052700008F0B0CF9395880F08F09927EE0F979517
:10528000879508950E942C2A08F481E008950E94D1
:105290005B290C94672A0E94602A58F00E94592AC0
:1052A00040F029F45F3F29F00C94502A51110C94DE
:1052B0009B2A0C94562A0E94782A68F39923B1F30A
:1052C000552391F3951B550BBB27AA27621773072C
:1052D000840738F09F5F5F4F220F331F441FAA1FC0
:1052E000A9F335D00E2E3AF0E0E832D0915050407C
:1052F000E695001CCAF72BD0FE2F29D0660F771F2A
:10530000881FBB1F261737074807AB07B0E809F00F
:10531000BB0B802DBF01FF2793585F4F3AF09E3F94
:10532000510578F00C94502A0C949B2A5F3FE4F3CB
:10533000983ED4F3869577956795B795F7959F5FD7
:10534000C9F7880F911D9695879597F90895E1E023
:10535000660F771F881FBB1F621773078407BA0782
:1053600020F0621B730B840BBA0BEE1F88F7E095DD
:1053700008950E94C0296894B1110C949B2A089545
:105380000E94802A88F09F5798F0B92F9927B7512B
:10539000B0F0E1F0660F771F881F991F1AF0BA95D9
:1053A000C9F714C0B13091F00E949A2AB1E0089573
:1053B0000C949A2A672F782F8827B85F39F0B93F65
:1053C000CCF3869577956795B395D9F73EF490958C
:1053D0008095709561957F4F8F4F9F4F0895E8940A
:1053E00009C097FB3EF490958095709561957F4F2D
:1053F0008F4F9F4F9923A9F0F92F96E9BB279395DB
:10540000F695879577956795B795F111F8CFFAF4EA
:10541000BB0F11F460FF1BC06F5F7F4F8F4F9F4F1B
:1054200016C0882311F096E911C0772321F09EE879
:10543000872F762F05C0662371F096E8862F70E0DF
:1054400060E02AF09A95660F771F881FDAF7880FB9
:105450009695879597F90895990F0008550FAA0B0F
:10546000E0E8FEEF16161706E807F907C0F0121677
:105470001306E407F50798F0621B730B840B950B7A
:1054800039F40A2661F0232B242B252B21F40895CF
:105490000A2609F4A140A6958FEF811D811D08956C
:1054A00097F99F6780E870E060E008959FEF80ECD7
:1054B000089500240A94161617061806090608957A
:1054C00000240A9412161306140605060895092EE0
:1054D0000394000C11F4882352F0BB0F40F4BF2B4F
:1054E00011F460FF04C06F5F7F4F8F4F9F4F08958F
:1054F00057FD9058440F551F59F05F3F71F0479585
:10550000880F97FB991F61F09F3F79F08795089569
:10551000121613061406551FF2CF4695F1DF08C088
:10552000161617061806991FF1CF869571056105A5
:1055300008940895E894BB2766277727CB0197F94D
:1055400008950E942C2A08F48FEF08950E94B92A2A
:105550000C94672A0E94592A38F00E94602A20F091
:10556000952311F00C94502A0C94562A11240C9473
:105570009B2A0E94782A70F3959FC1F3950F50E003
:10558000551F629FF001729FBB27F00DB11D639FF5
:10559000AA27F00DB11DAA1F649F6627B00DA11D9B
:1055A000661F829F2227B00DA11D621F739FB00D41
:1055B000A11D621F839FA00D611D221F749F3327B1
:1055C000A00D611D231F849F600D211D822F762F4A
:1055D0006A2F11249F5750409AF0F1F088234AF027
:1055E000EE0FFF1FBB1F661F771F881F9150504093
:1055F000A9F79E3F510580F00C94502A0C949B2AE9
:105600005F3FE4F3983ED4F3869577956795B79519
:10561000F795E7959F5FC1F7FE2B880F911D969533
:10562000879597F908950E942C2A880B990B089565
:10563000AA1BBB1B51E107C0AA1FBB1FA617B707B8
:1056400010F0A61BB70B881F991F5A95A9F78095D4
:105650009095BC01CD01089597FB072E16F4009498
:1056600007D077FD09D00E94182B07FC05D03EF427
:10567000909581959F4F0895709561957F4F0895FE
:10568000A1E21A2EAA1BBB1BFD010DC0AA1FBB1F46
:10569000EE1FFF1FA217B307E407F50720F0A21BB8
:1056A000B30BE40BF50B661F771F881F991F1A9425
:1056B00069F760957095809590959B01AC01BD014F
:1056C000CF010895052E97FB1EF400940E94792BBC
:1056D00057FD07D00E94402B07FC03D04EF40C94DA
:1056E000792B50954095309521953F4F4F4F5F4F07
:1056F000089590958095709561957F4F8F4F9F4F3E
:1057000008950E94892B332312F48A1B9B0B0C945F
:105710009A2BA29FB001B39FC001A39F700D811D62
:105720001124911DB29F700D811D1124911D0895AA
:105730000E94892BB7FF0895821B930B0895EE0FEB
:10574000FF1F0590F491E02D09940F931F93CF93C1
:10575000DF938230910510F482E090E0E0916705DC
:10576000F091680530E020E0B0E0A0E0309799F4D7
:105770002115310509F44AC0281B390B24303105A5
:10578000D8F58A819B816115710589F1FB019383AD
:105790008283FE0111C0408151810281138148172B
:1057A0005907E0F04817590799F4109761F01296DD
:1057B0000C93129713961C933296CF01DF91CF91E1
:1057C0001F910F9108950093670510936805F4CF1A
:1057D0002115310551F04217530738F0A901DB01BB
:1057E0009A01BD01DF01F801C1CFEF01F9CF90931C
:1057F000680580936705CDCFFE01E20FF31F81930B
:1058000091932250310939832883D7CF20916505A0
:1058100030916605232B41F4209191013091920142
:10582000309366052093650520918F01309190019A
:105830002115310541F42DB73EB7409193015091A8
:105840009401241B350BE0916505F0916605E21784
:10585000F307A0F42E1B3F0B2817390778F0AC0193
:105860004E5F5F4F2417350748F04E0F5F1F509370
:10587000660540936505819391939FCFF0E0E0E04A
:105880009CCFCF93DF930097E9F0FC01329713820E
:105890001282A0916705B0916805ED0130E020E02B
:1058A0001097A1F420813181820F931F209165050B
:1058B000309166052817390709F061C0F093660535
:1058C000E0936505DF91CF910895EA01CE17DF07D8
:1058D000E8F54A815B819E0141155105B1F7E90167
:1058E000FB83EA8349915991C40FD51FEC17FD073B
:1058F00061F4808191810296840F951FE90199835B
:105900008883828193819B838A83F0E0E0E0129612
:105910008D919C9113970097B9F52D913C9111971A
:10592000CD010296820F931F209165053091660587
:105930002817390739F6309751F5109268051092FB
:105940006705B0936605A0936505BCCFD383C2837A
:1059500040815181840F951FC817D90761F44E5FAC
:105960005F4F88819981480F591F518340838A81F5
:105970009B81938382832115310509F0B0CFF09389
:105980006805E09367059ECFFD01DC01C0CF13825F
:105990001282D7CF13E0CDEDD3E004C0FE010E9408
:0E59A0009F2B2196CE3DD107C9F7F894FFCF7B
:1059AE00FFFF0500636363000000000000000000BD
:1059BE00000020204152524554202020002020205B
:1059CE004C454E5420202000205241504944452041
:1059DE0020200020204155544F2020202000464FEB
:1059EE00524345205056202000464F5243452047F3
:1059FE0056202000464F524320415252455400201B
:105A0E0020202045544520202000202020484956A3
:105A1E00455220200041542043414E204255530010
:105A2E0063617320696E6578000000FFFF0200005D
:105A3E00006905800030405000F800F800FCE007D7
:105A4E00000000FC1F00FFFF00F800000000E0FF58
:105A5E001F00E007FFFF00FC00F800003F065B4F51
:105A6E00666D7D077F6F777C395E7971000000006F
:105A7E007505D5040205C20533051105250500007F
:105A8E0000003B10D50495139413890D0016D90D03
:105A9E00B60A760A630AE6120C0E6A0C4D0D340A2B
:105AAE00050AD209E3116B110C116609980B6E6190
:105ABE006E00696E66006F7666005374617274696B
:105ACE006E6720746F205365742046696C7465721E
